:020000041400E6
:10000000008000206B0000141CCD011400000020B3
:10001000EC00000090CC0114449A00208C000000F9
:1000200018010014000000102CB101004CB20114A2
:1000300000800020441A000000080020500B00003F
:10004000D09A0020E007000010B50023934203D2AD
:100050001C585C500433F9E710BD00231A468B424C
:1000600002D21A500433FAE7704738B572B61B4B08
:100070001B491C4AC3E900121B4A4FF0FF331360AF
:1000800053609360D360136153619361D36162B62F
:10009000164C174DAC4209D3164DAC420ED254F853
:1000A000080B54F8041CFFF7D8FFF6E7D4E9000169
:1000B0000C3454F8042CFFF7C7FFEBE7DFF84000DF
:1000C000016841F4700101600B4B1A680AB10B4AD8
:1000D000136000F019F800F01BF8FEE7003105404E
:1000E0000010DF10FFF7DF0180E200E008000014DD
:1000F00038000014480000140000001008ED00E073
:1001000088ED00E0FFFFFFFF5FF800F03D1B0110EE
:080110005FF800F0153A001041
:10011800008000206B00001415010010170100106A
:10012800190100101B0100101D0100100000000043
:100138000000000000000000000000001F01001087
:10014800210100100000000023010010250100100B
:1001580027010010270100102701001000000000EF
:1001680027010010270100102701001027010010A7
:100178001911011027010010270100102701001094
:1001880027010010F114011027010010B18F001091
:100198002701001027010010B91B001027010010CB
:1001A80027010010270100102701001065370010F3
:1001B800393900102701001027010010270100100D
:1001C8002701001027010010270100102701001047
:1001D8002701001027010010270100102701001037
:1001E8002701001027010010270100102701001027
:1001F8002701001027010010270100102701001017
:10020800000000002701001027010010270100103E
:10021800000000002701001027010010270100102E
:1002280027010010FEE7FEE7FEE7FEE7FEE7FEE730
:10023800FEE7FEE7FEE7FEE710B5054C237833B985
:10024800044B13B10448AFF300800123237010BDA1
:100258000008002000000000449A002008B5034B65
:100268001BB103490348AFF3008008BD000000003C
:1002780004080020449A0020012884B03AD8B0B974
:10028800244B25481A680092009AD20105D4234AC3
:1002980011601A680292204929E0009AD24342F07C
:1002A80080720192019A02601A680092ECE71C4B76
:1002B8001C481A680092009AD20405D41A4A1160A0
:1002C8001A680292174920E0009AD24342F48052F9
:1002D8000192019A02601A680092ECE7029AD243EE
:1002E80022F080720392039A0A601A680292029AB4
:1002F800D001F3D504B07047029AD24322F4805259
:100308000392039A0A601A680292029AD204F3D5F9
:10031800F0E700BF5431054004310540043404407F
:100328005031054000310540083304400020704733
:10033800002070470020704708B5F02202230321EF
:1003480001200CF06FFB064B04229A624FF4806286
:10035800C3F81822A3F5003308225A60002008BD0C
:100368000010104010B5054B00245C60F0220523F6
:10037800032101200CF056FB204610BD00100E4052
:100388001F4B002270B51146044618681D4E0AF02E
:1003980004FB054670B3237903B343888288D21AD5
:1003A80002EBD27203EB62031B044FF49E72B3FBA1
:1003B800F2F323F03F031B04134A1B0C1360637909
:1003C80013B964200FF080F84FF48063C6F8143234
:1003D800003518BF01256571002070BDC3880289EA
:1003E800D21A02EBD27203EB6203C3F1D0031B04EF
:1003F800D022DCE7044BC6F814021860E8E700BF17
:10040800280800200010104000100E4001717047AD
:1004180008B5082012F058FF034B036001238380BE
:10042800024B186008BD00BFA43A01101C08002048
:1004380013B5054B002401A81C7001940EF0FAFBBB
:10044800024B1C7002B010BD2108002020080020BB
:10045800F7B50D4D00240F4605EB80052646A7424B
:1004680010DD01A801960EF0E5FB4EF660200FF0B6
:100478002BF828460EF0DEFB4EF660200FF024F82D
:100488000134ECE703B0F0BD34420110072813B57E
:1004980004460DD8002301A801930EF0CBFB4EF6BD
:1004A80060200FF011F8034800EB84000EF0C2FB47
:1004B80002B010BD3442011001282DE9F0418046F8
:1004C8000E4633D92B4F2C4D0FF014F83B78012BE7
:1004D80011D023B1022B2BD0FFF7AAFFF4E727484E
:1004E8000FF044F830780130C0B2012328703B7017
:1004F800FFF7CCFFE8E740B120480FF037F828783D
:10050800FFF7C4FF02233B70DEE71C4B18680FF0AF
:1005180033F81B4B9842D7D93078174B0130C0B20B
:1005280004211870FFF794FFFFF782FF00200AE00C
:1005380058B9114B1878431E33700421FFF788FF10
:10054800FFF776FF0120BDE8F0810C4C20680FF022
:1005580013F80C4B9842B7D920460FF007F82B78C0
:100568000133DBB208F10102934208BF01232B706B
:100578002878BDE720080020210800202408002052
:1005880060E3160040420F0010B5046800230868B5
:10059800984203D9D05CE0540133F8E710BDFFFF5F
:1005A8002DE9F0410546AEB00F4624480021164615
:1005B80000F0FEFE00210446214800F0F9FEE4B2F6
:1005C800C0B201231934193003FA04F42A688340AD
:1005D8001C431C4B511EE443994204F07E442AD824
:1005E800194905A811F0C6FD2A6818490DAD15A8C6
:1005F80011F0C0FD4FF0000839462846A12711F038
:10060800F3FDCDE90158009715AB40F6B832214605
:1006180005A80FF017FB404505DA43462A46394638
:1006280005A80FF017FC3046012101F0F7F800206B
:100638002EB0BDE8F0814FF0FF30F9E7C83A01105D
:10064800E33A0110DE2B0100F13A0110053B0110DD
:1006580008B50378532B12D1837A0A68303BD9B294
:100668000B4B18680BF0A4FF01F0BEF878B1084BEB
:1006780018680BF072FEBDE8084001F0BFB84D2BBA
:10068800F2D1034B096818680BF09EFFECE708BD30
:100698002808002037B50C462D49054611F09AFD6B
:1006A80030B92C4B218818680AF0FFF803B030BD28
:1006B8002949284611F08EFD28B9264B218818684B
:1006C8000AF0F9F8F2E72549284611F083FD28B920
:1006D800204B216818680AF0F1F8E7E72049284616
:1006E80011F078FD28B91B4B218818680AF0ECF83E
:1006F800DCE71C49284611F06DFD28B9154B216827
:1007080018680BF05DFFD1E71749284611F062FD24
:1007180038B9164A2388138001A801930EF0A0FA6D
:10072800C4E71349284611F055FD28B9094B21782B
:1007380018680BF042FBB9E70E49284611F04AFD4C
:100748000028B3D1034B218818680BF039FBADE7BB
:10075800F840011028080020034101101C41011035
:100768002B4101103A410110544101102C0800207E
:10077800634101107341011070B5114E114D8AB0DB
:1007880001242246314602A811F0F4FC002301AAF4
:10079800694602A80FF030FA00280FDBE1B2019A8F
:1007A800286801340BF0AEFD082CEAD128680BF05C
:1007B800D4FD054B18680CF01DF900200AB070BD77
:1007C800BC3A01102808002030080020F0B597B086
:1007D8000C4619881C9BADF80E10074610881A881D
:1007E8001D9BADF810201B88ADF812302378ADF8AA
:1007F8000C005A1E062A39D81E4E306830B91E49D8
:100808000EF002FD6FF0010017B0F0BD1B4D03AAFA
:10081800314628680BF049FD217828680BF067FD00
:100828003B68C361054603AA31460DA80BF0CAFB15
:1008380000210DA80BF003FCA861227810490024C0
:1008480005A811F097FC2B4620228121009405A8C9
:100858000FF000FBFFF790FF0A4920460EF0D4FC8A
:100868001E98012100F0DAFF2046CDE74FF0FF3057
:10087800CAE700BF080C0020CF400110280800205C
:10088800BC3A0110E840011070B5037892B0013B02
:100898000024062B05460E461194CDE90E44CDE9F9
:1008A8000C44CDE90A441CD8214620220AA811F09C
:1008B8001DFA2A780C4902A811F05CFC81210AABC8
:1008C8002022009402A80FF0C5FA0446FFF754FF4F
:1008D800FFF752FF0121304600F0A0FF204612B07A
:1008E80070BD4FF0FF34F9E7BC3A0110F0B50024B1
:1008F80093B00646202221460AA81194CDE90E4459
:10090800CDE90C44CDE90A4411F0F0F90D4F012569
:100918002A46394602A811F02DFC00940AAB202281
:10092800812102A80FF096FA002809DB0135082D6D
:10093800EED1FFF721FF3046012100F06FFF0020C4
:1009480013B0F0BDBC3A01102DE9F04F2DED028B2C
:100958000025B9B02946C2481695CDE91355CDE909
:100968001155CDE90F5500F023FD29460446BD4831
:10097800DFF868B3DFF868A300F01AFDE4B2C5B287
:1009880001261934193506FA04F406FA05F5254343
:100998009FEDAF8BED4305F07E453246594617A8CB
:1009A80011F0E8FB324651461FA811F0E3FB0FABEC
:1009B8000024029320228123CDE9003245F0010171
:1009C8001FAB2246039417A80FF03CF93246A649FC
:1009D800A64F17A811F0CEFB45F480783246A449FB
:1009E8001FA84FF0140911F0C5FB1FAB41F2883264
:1009F800414604948DED028BCDF8009017A80FF0B6
:100A080021F922460AA917A80FF0F6F80A9A3868B9
:100A1800F1B20BF0CDFD974917A80FF03FFA324617
:100A2800954917A811F0A6FB324694491FA811F062
:100A3800A1FB934B0193A123009302941FAB40F6B3
:100A4800B832294617A801360FF0FCF8082EA4D1B1
:100A580081A3D3E900234146CDE902230494894BBD
:100A6800CDF8009041F2873287480FF0EBF8012665
:100A7800804985480FF012FA29460294CDE90066AC
:100A8800824B834840F69D720FF0DCF84FF0040A61
:100A980040F67463CDE900A340F69E727D4B029444
:100AA80041467D480FF0CEF87C497B480FF0F6F9B7
:100AB800022540F2EE23CDE9005340F69E72784BB2
:100AC8000294414677480FF0BDF84FF0640B734924
:100AD80074480FF0E3F9CDE9005B734B029440F6DC
:100AE800A172414671480FF0ADF86C496F480FF09C
:100AF800D5F900956E4B6F4840F6A1724146CDE995
:100B080001B40FF09FF865496A480FF0C7F96A4BBE
:100B1800CDF800A040F6A1724146CDE9019467489E
:100B28000FF090F85D4965480FF0B8F90723CDE953
:100B3800005340F6A172624B0294414661480FF09F
:100B480081F856495F480FF0A9F90323CDE90063FE
:100B580040F6A2725C4B029441465C480FF072F872
:100B68004E495A480FF09AF94123CDE9005340F60F
:100B7800A272574B029441465648574D0FF062F8FF
:100B8800464954480FF08AF9224608A947480FF009
:100B980033F822460DF1220146480FF02DF822467F
:100BA8000DF1260147480FF027F822460BA94348C4
:100BB8000FF022F822460DF11E0135480FF01CF8FF
:100BC80022460DA930480FF017F822460CA93248E2
:100BD8000FF012F82246294632480FF00DF8224647
:100BE8000DF11F0139480FF007F8224609A93948C5
:100BF8000FF002F8BDF82010386809F056FEBDF86D
:100C08002210386809F057FE0B99386809F056FE2B
:100C1800BDF82610386809F057FE9DF81E10386890
:100C280009F04FFE0D9938680BF0CEFC0C99386826
:100C38000BF0C6FC2B880E930EA80EF011F89DF849
:100C48001F1038680BF0B9F8BDF824104AE000BF4F
:100C58000000000000000C40000000A09999C93F66
:100C6800C83A0110E33A0110613B0110280800203E
:100C7800743B011041050010C13B0110D43B011029
:100C880084A001101C3C0110713C0110803C011033
:100C9800F13C0110013D01103A4101108505001099
:100CA8008B3D0110544101102D3E0110F8400110F8
:100CB8007F3E011003410110E93E01101C41011063
:100CC800693F01102B410110DA3F01106341011007
:100CD80065400110734101102C080020BC3A011036
:100CE8004E3B011038680BF06BF8FFF745FD39B043
:100CF800BDEC028BBDE8F08F70B50546042012F0FC
:100D0800E3FA0C4C06460BF06BFE4FF42D70266090
:100D180012F0DAFA084A2168064609F065FD074B21
:100D280007491E60284608F0EBFAFFF70DFE002081
:100D380070BD00BF300800200010091028080020EE
:100D48008C41011008B5034B18680BF044FE0020D5
:100D580008BD00BF3008002008B5034B18680BF029
:100D6800AFF8002008BD00BF280800202DE9F04793
:100D78008CB080460C46914608F0B4F920B94FF083
:100D8800FF300CB0BDE8F08720894FF00E0A0AFB4F
:100D980000F010F07FFF07460028F0D024680026F6
:100DA8000AFB06F58CB12378023B012B0BD93D4495
:100DB80004F1140128460BF007F863782B73A37A23
:100DC8006B730136B6B2646AEAE7D0238122CDE9B3
:100DD800053242234FF49E72CDE90323CDE90193F6
:100DE800412300936422074B2146CDE90944CDE90C
:100DF8000757404608F0CDFB384610F053FF204611
:100E0800BFE700BF4343423108B5000244F61F6301
:100E180098421CD944F62063B0FBF3F007EE900A21
:100E2800F8EEE77A17EE900A11F008FE9FED097ABE
:100E380006EE900AF2EE047AE6EE877AFCEEE77A9E
:100E480017EE900AFF2828BFFF20C0B208BD012076
:100E5800FCE700BF0000A042014B1870704700BFBC
:100E68002E08002030B52A4B1A7885B0002A48D1C0
:100E7800284C1146206809F090FD002843D00388CB
:100E8800072B9FBF226803F1FF33142101FB0323C3
:100E9800428898BFD3F8F0508388A3EB02030289F5
:100EA800C088A2EB000000FB03F088BF6FF07F450D
:100EB800FFF7AAFF02AA044603AB01A9284609F0D6
:100EC800BDF9039A12B16243120A0132029B0392DE
:100ED80013B163431B0A01330198029310B16043B5
:100EE800000A013001908DF801008DF803200DF102
:100EF80002010DF103020DF101008DF802300DF031
:100F080085FE05B030BD039003A80DF093FEF8E709
:100F18002E080020280800202DE9F04F91B09346B4
:100F28009DF868200F9206468A461D46002B4AD037
:100F3800022400234FF0B2094FF04108CDE90C33E9
:100F4800CDE90A39CDE90834CDE90634CDE90434D0
:100F5800CDE90234CDE900384FF4903264231B49BF
:100F6800284608F083FC3268B168074600F18050D3
:100F7800A24000F5002010F0ABFE33681349A340EF
:100F88005B08CDE90B93D023CDE905434FF49E735D
:100F9800CDE903430F9BCDE901830D4B0093CDE9C8
:100FA800094BCDE9074A64234FF49032284608F0EC
:100FB8005DFC3268054907EB8202284611B0BDE89E
:100FC800F04F08F011B911B0BDE8F08F000008101B
:100FD800424C54312DE9F047804696B09A46002499
:100FE800102340200E46CDE90243914612F04EF9F7
:100FF800014600F140034C8021F8044B8B42FAD1A2
:10100800317804904B1E062B51D82A4F386860B9A6
:1010180029490EF0F9F86FF00104049808B112F0AC
:1010280037F9204616B0BDE8F087244DB9F90020FD
:10103800BAF900300091ADF83420ADF836300DAA79
:1010480002AB394628680BF07AFC317828680BF037
:101058004EF9D8F80030C361054602AA39460DA8F2
:101068000AF0C6FF00210DA80AF0E9FF04220323B5
:10107800A8611146009302A81E9BFFF74DFF327826
:101088000F4905A811F076F82B46202281210094FB
:1010980005A80EF0DFFEFFF76FFB0A4900200EF0EF
:1010A800B3F801211E9800F0B9FB0024B5E74FF012
:1010B800FF34B2E7080C0020CF40011028080020B8
:1010C800BC3A0110E8400110014B0020187070472D
:1010D800BD080020034A01231370034A002013703F
:1010E800704700BFBD080020BE080020044A054B19
:1010F8001B6810680344506803449068184470479C
:101108000450044000500440074B10B504461868CA
:1011180028B1036821881B699847002802DB034B24
:1011280022881A8010BD00BFB8080020AA08002035
:101138000968006811F04EB8F0B5D5B02249234FC0
:10114800234E244D14A811F04FF800243B78A342F5
:101158000CDD230122469B59294604A811F00AF800
:1011680004A914A811F026F80134EFE7002401259A
:1011780014AB2146CDE90144009540F69672164815
:101188000EF060FDCDE901440095144B144840F67B
:1011980096724FF400710EF055FD124B00952146E2
:1011A800CDE9014440F695720F480EF04BFD2246FA
:1011B8000E490D480EF020FD22460D4906480EF056
:1011C8001BFD55B0F0BD00BF4A460110A80800201D
:1011D800380800208946011093460110A3460110E3
:1011E8001F4701103A47011077470110AC0800204B
:1011F800AD080020F0B51F4B1F4D1A78A3B0044668
:10120800002A2FD11D4B1E4A1B781B0102A8D1585A
:1012180010F0EAFF2B7803B30DF06EFA074602A828
:1012280010F0EAFF0646384612F0C2F9024602A854
:101238000B463044134910F09DFF3CB10021CDE925
:10124800001102ABA122204608F0A3F9287810B1BA
:101258000D4B1B78184423B0F0BD0C4902A810F0C0
:10126800A9FFEAE70028F1D00021CDE90011A12269
:10127800EAE700BFC0080020BE080020BC08002024
:1012880038080020C9450110B4080020DB450110CA
:1012980030B5104A0446127823789A4285B0084639
:1012A80015D961B10C4D00211B01CDE90211EA18D5
:1012B800EB5852680192A122009208F06AF9074B94
:1012C80020781B78C31A5842584105B030BD4FF0FA
:1012D800FF30FAE7A808002038080020BC080020E2
:1012E8002DE9F0471F4B81460F460188186886B0E4
:1012F8000024CDE90444984600282FD0036804AAA6
:101308005D6905ABA847061E18DA2546D8F800001F
:101318000368ACB2D3F814A004AA05AB2146D047A1
:10132800002805F10105F1DAB9F80010611A89B24F
:1013380021B90D4B04930D4B05930E4657B1059BF0
:1013480001930021A122CDE902110092049B3846A5
:1013580008F01FF9304606B0BDE8F0874FF0FF36B9
:10136800E6E700BFB8080020EB450110F74501107B
:1013780030B50E4B1B6885B00D469BB11A680188C5
:10138800D468184603AAA047041E08DB3DB1002113
:10139800CDE90011039BA122284608F0FAF820465F
:1013A80005B030BD4FF0FF34F9E700BFB8080020A2
:1013B8002DE9F843DFF83C90DFF83C80064600252D
:1013C80099F80030ECB2A34210D92301304658F8FE
:1013D800037010F011FF31460246384610F014FF32
:1013E80001350028ECD12046BDE8F8834FF0FF34E2
:1013F800F9E700BFA808002038080020F7B50B4F10
:101408000B4D0C4E00243B78E2B293420AD91301EB
:10141800E918002049680091EB5831460DF0F4FEB8
:101428000134F0E7002003B0F0BD00BFA808002099
:10143800380800203E46011008B5054A054B1268D9
:101448001B68054900200DF0DFFE002008BD00BF25
:101458003450044038500440BE45011010B50DF01A
:1014680001FD0446003018BF0120FFF7F5FC2046B7
:1014780010BDFFFF07B530B10021CDE90011044BC5
:10148800A12208F086F8002003B05DF804FB00BF35
:101498002546011010B51349134B0978044610224C
:1014A800124810F00CFD2046114C124907F028FF95
:1014B80000221149206808F0D1FC104B104918800F
:1014C8000022206808F0CAFC0E4B0F491880002241
:1014D800206808F0C3FC0D4B1880FFF72DFE002094
:1014E80010BD00BFA80800202110001038080020F7
:1014F8003C0C0020804701102D46011006000020FA
:10150800314601100400002039460110080000206F
:10151800074B1B78834281BF064B1870064B00228D
:1015280083BF1A60054B18784FF0FF30704700BF33
:10153800A8080020BC080020B0080020BF08002030
:1015480008B50146FFF7C6FDBDE808400878FFF773
:10155800DFBF13B50021FFF72BFF041E09DB0021B5
:101568000DF107008DF80740FFF7EAFF031B5C4207
:101578005C41204602B010BD00210148FFF7E0BFE2
:10158800AD08002010B50C461146FFF7D9FF00281A
:10159800A1BF024B22681A60002010BDB0080020CD
:1015A80010B588B0002107ABCDE90113CDE90311CF
:1015B80000900446064A0748B2F900200068012353
:1015C80008F03FFC044B07981C7008B010BD00BF22
:1015D800060000203C0C0020350800207FB50023C1
:1015E800CDE9013305AA00920648074A0068B2F916
:1015F8000020194608F025FC9DF8140007B05DF896
:1016080004FB00BF3C0C0020040000207FB5002331
:10161800CDE9013305AA00920748084A0068B2F9E3
:101628000020194608F00DFCFFF7D8FF0028FBD171
:10163800059807B05DF804FB3C0C0020080000206A
:1016480037B50D4D0D480E4C00220DF107010EF077
:10165800D3FA2B7823709DF8073033B1094B214614
:101668001878FEF729FF23782B7000210448FFF72C
:1016780067FF03B030BD00BFAD0800201F47011051
:10168800BC080020A808002008B5FFF75DF901F0A4
:1016980067FE0DF04BF80EF06BFD00210448FFF7D4
:1016A80087FE40B202F00EFFBDE80840FFF744BDD8
:1016B8000F46011008B50DF03DFD0EF0E7FB18B11F
:1016C800BDE80840FFF7E0BF08BDFFFF014B93F9F5
:1016D80000007047BC08002030B5104B104A19783C
:1016E80002EB0112117A8142194602D8537A8342D9
:1016F8000CD20C4B1C780A4B002294420BDD1D7A4D
:10170800854205D85D7A854202D30A70002030BD33
:1017180001321033F1E74FF0FF30F8E7BC08002042
:1017280038080020A80800202DE9F3411C461A4B70
:101738001B78012B06460F4690461BD1174B1B788A
:101748003BB121466FF0040002B0BDE8F04101F062
:10175800C7BB134D2B68DBB1FFF7BEFF002803DAC8
:1017680021466FF00300EFE70E4B1A780E4B1B78FB
:101778009A4203D021466FF00500E5E72868036820
:101788000094DD693A4643463146A8470028E7DB1E
:1017980002B0BDE8F08100BF34080020B408002082
:1017A800B8080020BC080020BF08002073B50D4C05
:1017B800236806460D468BB101A801F03FFB20685F
:1017C800019903688A1C9C693346A0470D202A4664
:1017D800042101F039FB002002B070BD4FF0FF304A
:1017E800FAE700BFB808002010B5FFF7F7FE044677
:1017F80008B1FFF70BFF204610BDFFFF08B5054BEA
:1018080018680BF0F7F8044B1878BDE80840FFF7A4
:10181800C7BE00BF30080020350800201FB548B1FA
:101828000023CDE90113042300936422034B1821FC
:1018380007F0AFFE05B05DF804FB00BF4556543114
:10184800094B0A491B681A0C12048A4209D19AB238
:10185800110BDBB2C2F30322018042808380002097
:1018680070474FF0FF307047385004400000ABC15C
:1018780030B50E4A89B051680446106805AB03C3F9
:10188800906818600DF11A00FFF7DAFF05464CB1B1
:1018980005AB00210093CDE90111062382222046E1
:1018A80007F077FE284609B030BD00BFB2450110E9
:1018B8002DE9F0410025104F2C462E46A846394602
:1018C800082011F0E7FC034640B1C0E900681CB1EC
:1018D800686001361D46F2E70446FAE732460749D2
:1018E8000DF092FC34B165682046082111F0CAFC5D
:1018F8002C46F7E7BDE8F08128B101101D4601101C
:1019080038B5114B1B788342044619D30F4D28680C
:10191800B0B90F4B93F90030002B04DA0D490DF0E4
:1019280073FCFFF7C5FF0C4B03EB04132046DB6881
:101938009847002828600CBF6FF00100002038BDD0
:101948004FF0FF30FBE700BFA8080020B8080020D0
:10195800AC0800200746011038080020114A034649
:10196800106810B5D0B1104900220A7002688BB116
:10197800936898470D4B93F90030002B044601DA21
:10198800FFF796FF002C0A4BCCBF012200221A70E9
:10199800204610BD926819469047EBE74FF0FF3498
:1019A800F6E700BFB8080020C0080020AC080020F7
:1019B800B408002038B50C4D286888B103685B6806
:1019C80098470A4B93F900300024A3422C6005DAAB
:1019D800074920460DF018FCFFF76AFF204601E092
:1019E8004FF0FF3038BD00BFB8080020AC08002019
:1019F800E44501102DE9F74F504C514F514EDFF897
:101A08005C91DFF85CB14FF0000884F80080FFF7C4
:101A180017FE102011F058FC05460EF0F9FC294677
:101A2800386808F087FA07233370386807F05AFBDC
:101A3800054638B1444B187810B1386807F055FBA3
:101A4800824600E08246FFF735FE2378042B25D82E
:101A5800DFE803F0033324536300002301A8019354
:101A68000DF0E8F8394B93F800803378434502D1FC
:101A7800374B1B68EBB9FFF79DFF3378434508D018
:101A88000DF0BAFE334B4FF6FF7200201A80FFF7B5
:101A9800E3F94046FFF734FF002801DA032309E0A1
:101AA8003378434505D003213868FFF7B7FE86F839
:101AB800008001232370A846B7E701F0E9FC01F094
:101AC800D3FC99F80030002BE8D0204B1A783378F3
:101AD8009A4201D00023EDE75046FFF73FFF002868
:101AE800DCDBB8F1000FE6D00DB10125E3E72946AC
:101AF8005846FFF725FD2570DDE74FF0000801A8DF
:101B0800CDF804800DF096F8FFF754FF124B89F8D2
:101B1800008083F800800423CCE799F8003013B1E3
:101B2800FFF7D8FAD6E71DB1074B1B78002BDCD19D
:101B380000215846FFF704FDCCE700BF3408002019
:101B4800400C0020BF080020340E0020BC080020F4
:101B5800B8080020AA080020BE080020BD08002000
:101B6800AD080020034B4FF48022C3F880200020EA
:101B7800704700BF00E100E0D0E90720101A704765
:101B880003460020F0B50546904214D0D3E9074635
:101B9800A41B002C0FDDD3E90464671C5F61345D6E
:101BA8000C541C6A5E6901341C62DC68A64208BFDA
:101BB8005D610130E8E7F0BD414B37B500221A708E
:101BC8008268536803F0F803982B04464DD02ED84A
:101BD800802B0AD005D8602B47D0702B45D02C23FA
:101BE80046E0882B41D0902BF9D19168E368226AAE
:101BF8001344E2699B1A002B0DDDA3692269581C66
:101C0800A061D154E369A2690133E361E3689A42B0
:101C180004BF0023A3612B4B1B780BB901F032FAE8
:101C2800A36804221A6008229A6103B030BDB82B59
:101C380004D00BD8A02B18D0A82BD0D12379CBB1A6
:101C48006379BBB1002393602371E9E7C82B03D004
:101C5800F82B0AD0C02BC2D1A37933B10023C4E931
:101C68000B33C4E90533C4E907330423136008239D
:101C78009361DAE7134B1B7853B90DF1070001F0B4
:101C8800C5F80028CCD0A3689DF807209A60C7E75C
:101C9800256B35B9636BD4E909109847206350B1B7
:101CA800E562D4E90A23591CE162D25C236B013B4B
:101CB8002363A368EAE7A36898600123C4E700BF29
:101CC800400900207E0A0020014B1868FFF774BF06
:101CD80044090020836838229A6144221A607047B8
:101CE80010B500230446F022032101200AF09AFED1
:101CF8000423F022012102200AF094FE0023F0229E
:101D0800042101200AF08EFE0423F0220021022083
:101D18000AF088FE064B0021C3F81812054B217102
:101D28004FF4802220461A60FFF7D4FF084610BD02
:101D38000010104000E100E0816808B50B685B07FF
:101D480003D4FFF7C7FF002008BD4B68F82BFAD172
:101D5800044A1378322B85BF6C238B61013300232F
:101D68001370F0E74009002013B500248DF8051022
:101D780080688DF8074001A98DF804400BF0BAF986
:101D8800204602B010BDFFFF2DE9F04104469846F9
:101D9800144B03604020E0600E46174611F076FAB7
:101DA800002520612020C4E90555C4E90755606273
:101DB80011F06CFA01236371A062C4F834803046D4
:101DC800C4E90B55A660A57107490BF051F93946CE
:101DD8002046FFF7C9FF054B83F817532046BDE897
:101DE800F08100BF24510110A086010000E100E04D
:101DF800817142717047FFFF38B50546382011F0F0
:101E080063FA2B46542203490446FFF7BDFF024BF1
:101E18001C6038BD00100A40440900204FF49E732E
:101E28000B80D023138070470E2998BF074810B540
:101E38009DBF50F83140146000EBC1004FF0FF30F7
:101E48009EBF42681A60002010BD00BF34520110C6
:101E580008B5FFF7DBFBBDE80840FEF77DBFFFFFD5
:101E680010B5034B03600446FFF7F2FF204610BD90
:101E78004451011010B5054B03600446FFF7E8FF15
:101E88002046042111F0FEF9204610BD44510110EE
:101E980007B50A4A00231370094A01931370094AC7
:101EA80001A813700CF0C6FE074B01A81B8801930C
:101EB8000CF0D6FE03B05DF804FB00BF4909002012
:101EC8004A090020500900202C08002000B588424B
:101ED8002DED028B08EE103A034628BF0B469342BD
:101EE80028BF134687B0CDE90210C91AC01A494362
:101EF800019200FB0010D21A02FB020007EE900AC2
:101F0800F8EE677A17EE900A10F0CCFD07EE900A0B
:101F1800FCEEE77A17EE900A1E283AD809283AD933
:101F2800DFED1F7AB8EE488A28EE278A07EE900A76
:101F3800F8EEE77A28EE278AFCEEC87A17EE903A90
:101F4800B3F57A6F29D805A805930CF089FEDDE969
:101F58000121039808F064F908F07AF901AB02AAA4
:101F680003A908F06BF9039B8DF81130029B8DF8DB
:101F780012300DF11302019B8DF813300DF112018F
:101F88000DF111000CF042FE07B0BDEC028B5DF8BC
:101F980004FB1E20C4E70023D5E74FF47A63D2E799
:101FA8008FC2753C10B5102392B000244020CDE9B3
:101FB800064311F06BF9034600F140025C8023F8F8
:101FC800044B9A42FAD108901548164B099309AA6E
:101FD80006AB154900680AF0E8FB03230093134B8E
:101FE80004221B68114606A8FEF796FF06AA0E49AA
:101FF80009A809F0FDFF05A909A80AF020F804AB13
:1020080003AA02A908F01AF9DDE90201DDE90423AF
:10201800FFF75CFF089808B111F03AF912B010BD4B
:10202800280800209E006800080C0020400C0020B2
:1020380080B1094B1B78022B02D8084910F09AB8D6
:10204800074B1B7823B1074B07491A7810F092B851
:102058000649F3E7704700BF49090020995101106C
:10206800500900204A090020B6510110FE51011004
:102078001FB59E220E4CADF808200023682203935A
:10208800ADF80A20009302AA0DF10A03214603A81D
:10209800FEF7A0FF002808DB064B01211868FFF7B0
:1020A800BDFB04212078FEF7D3F904B010BD00BFB2
:1020B8004A090020400C0020F0B5784F784C89B0D0
:1020C80006460DF017FA3B78054653B321238DF8E1
:1020D800153000230393ADF81630ADF818300223FD
:1020E8000293704B4FF49E721B68ADF81A2001934F
:1020F800D02207ABADF81C20009306AA0DF11A03F5
:102108000DF116010DF115000CF094FAFFF74AFFD6
:102118002378052B00F29680DFE803F025425C87E0
:1021280097BB2278FAB10393ADF81630ADF81830A2
:10213800012302935B4B21221B688DF815204FF475
:102148009E72ADF81A200193D02207ABADF81C207F
:10215800009306AA0DF11A030DF116010DF11500F1
:102168000CF068FAD4E77DB14F480DF0FFF94F4BFA
:1021780007A81B8807930CF073FD0123237007A899
:10218800002307930CF056FD2378002B14BF01247D
:10219800002402D03046FFF74BFF204609B0F0BDBF
:1021A8000DB92570F0E7404F38680DF0E5F9404B60
:1021B8009842E9D90BF064FE3E4D003018BF01206B
:1021C800287038460DF0D2F92878FEF75FF9022317
:1021D8002370D9E79DB9374D03212878FEF738F9E0
:1021E80031480DF0C3F92A78012332B907A88DF8D0
:1021F8001C300BF0E7FE0323EAE73B70FBE72A4DB0
:1022080028680DF0B9F92C4B9842BDD928460DF035
:10221800ADF9284B1A780132D2B2082A08BF002239
:102228001A701878FEF732F9AEE725B11E480DF09E
:102238009DF90423CCE71C4B18680DF09DF91F4B42
:102248009842A1D9FFF724FE9EE77DB9194F3B7844
:102258004BB907A88DF81C500BF0B4FE0421387850
:10226800FEF7F6F8EEE7FFF703FFEBE70E4B18680B
:102278000DF082F90E4B984286D90E4B1B7823B984
:1022880007A88DF81C300BF09DFEFFF701FE052313
:102298009EE7002D7FF478AFD4E700BF50090020F7
:1022A80049090020400C00204C0900202C0800207F
:1022B800D01213004A09002040420F000087930300
:1022C80002280AD8064B53F820300B60054BB3F9A7
:1022D80000301B1A5842584170474FF0FF30704782
:1022E8000C000020AA08002008461146FFF7E8BFA6
:1022F800022808B50BD8074BB3F9000030B1064BDC
:10230800012232201A700DF0E9F8002008BD4FF0C4
:10231800FF30FBE7AA08002000FC00200846FFF772
:10232800E7BFFFFF13B501230DF107008DF8073054
:102338000BF0BAFEFEF706FD114B00245C70114B42
:1023480018680AF057FB2046FFF72AF90E4B1C7055
:1023580001F0A4F8036801229B680DF10701984772
:102368000028F5D1094B1870FFF792FD084BB3F917
:102378000030002B02DA0120FFF7BAFF02B010BDCF
:1023880000FC002030080020480900204B090020EC
:10239800AA08002038B507490546042010F07AFF3E
:1023A800044620B1044B03602846FFF7BBFF2046D4
:1023B80038BD00BF28B10110445101100E2898BF44
:1023C800074B10B59DBF53F830400C6003EBC003BA
:1023D8004FF0FF309EBF5B681360002010BD00BF48
:1023E800345201102DE9F74301F058F8474DDFF852
:1023F8002091DFF8208104460A272E78012E09D083
:102408001EB1022E1BD0002317E0FF2388F80030EE
:10241800012312E0236832469B68694620469847A4
:10242800002835D09DF8002098F8003088F8002062
:1024380042EA0323A9F8003002232B7028E0B9F8F8
:102448000030FF2B2BD123682046DB6898470328F0
:102458001EDD236832469B6801A9204698472368F9
:1024680032469B680DF1060120469847002601A9CF
:102478000DF103008DF803600DF086FD01230DF1C9
:1024880006010DF103008DF803300DF07DFD2E706F
:10249800013F17F0FF07B0D103B0BDE8F083FE2B72
:1024A8000BD1236801229B6869462046984700287B
:1024B800EED068460BF01AFDA5E7FD2BA8D12368DE
:1024C8002046DB6898470228E2DD236801220DEBED
:1024D80002019B682046984723680DF102019B681A
:1024E80001222046984723680DF103019B680122C9
:1024F800204698470120FEF7AFFC0DF103020DF1CD
:1025080002010DF101000CF081FB7CE74B09002072
:10251800180000205109002013B50446FFF7CCFD30
:10252800014600286CD1374B374A14BB1970B2F9F1
:102538000030364C022B206804D1354B1978003115
:1025480018BF012108F0AEF9206809F0A5FA0028A3
:1025580016DA304B1B783BB12F4B1A68511C1960A7
:1025680000202E490CF050FE264B0020587002B077
:1025780010BDB2F900000028D8D001201870D6E7A5
:10258800274B93F90030062B04D0264B1B780BB150
:10259800FFF728FF206808F04DFA1A4B1B78014610
:1025A80043B31B4C237833B11F4B03221868FEF743
:1025B800DDFB00232370134CFEF754FC237803F053
:1025C800FF00002BD3D0194B18680AF013FA637870
:1025D800002BFCD0164B14480093D02202234FF452
:1025E8009E7100680BF0FCFF094B012200201A7055
:1025F8006070BCE70C4B01221868FEF7B7FBDAE7FE
:102608000120B4E700FC0020AA08002028080020C8
:1026180048090020AC0800205409002090510110FE
:102628001F0000207E0A0020400C002030080020F7
:10263800424138310846FFF76FBFFFFF7FB50E46AE
:102648001446054630B911466FF0020000F048FC08
:1026580004B070BD03A800F0F1FB80B200900948F7
:10266800039B00682946324609F0C2FB011E03DAC3
:1026780021466FF00100E9E72246C9B2212000F0A7
:10268800E3FBE5E728080020202810B50C460ED10A
:10269800022A06D11A4649782078FFF7CFFF002092
:1026A80010BD19466FF0020000F01AFCF7E74FF072
:1026B800FF30F5E7084611461A469DF80030FFF747
:1026C800E3BFFFFF084A09481378591C11700849ED
:1026D8001B015A185850074B536042F62073138158
:1026E800054BD360704700BFA8080020C83A011006
:1026F80038080020645101108522001019B9034BD5
:102708001360012070474FF0FF307047284B0110CD
:10271800003118BF0121484270474FF0FF30704721
:1027280010B5034B03600446FEF770FF204610BD4A
:102738006857011010B5054B03600446FEF766FFA5
:102748002046042110F09EFD204610BD6857011058
:102758000C4B13B503600C4B1B68044683B90DF191
:1027680007008DF807300BF09FFC0120FEF718FFDB
:10277800064B00225A80204601221A7002B010BD72
:102788000123ECE768570110B008002000FC002086
:1027980038B506490546042010F07CFD044610B102
:1027A8002946FFF7D5FF204638BD00BF28B10110E4
:1027B80040F23B13984228BF18462DE9F04FCF2925
:1027C800A0F1020728BFCF213FB2023080B2012F0B
:1027D80001F10205ADB2B8BF01278C1E984224B2A0
:1027E80028BF1846CF2D89B028BFCF25012CB8BFE8
:1027F8000124DFF864A005928046A4B20DF11F09F8
:10280800AC4216D8BEB20DF11E0B46450ED80DF1DE
:102818001D0300933146CDE901B94FF49E7322465A
:102828005046013607F05EFDB6B2EEE70134A4B2B9
:10283800E6E79DF81F209DF81E109DF81D0007F083
:10284800EFFC059A034612B107F002FD034618464D
:1028580009B0BDE8F08F00BF4000081010B570291E
:1028680010469DF8084011D1052B06D021466FF07F
:10287800020000F035FB002010BD41881279008865
:10288800FFF796FF214600F021FBF4E74FF0FF30F9
:10289800F2E7FFFF164B174A1B68012B13B51068A8
:1028A80008D1154A0092D0224FF49E710BF098FE81
:1028B80002B010BDA3F16402632A17D864220A2467
:1028C80093FBF2F102FB113193FBF4F204FB123398
:1028D8003033B1FBF4F11B06303143EA014343F4D2
:1028E800B04343F0450300930123DCE7034BFAE7C9
:1028F800B0080020400C0020434D56324241383188
:1029080073B5144C144E05466388CD2B06D823782E
:10291800002BF9D130460AF02FFCF5E7002323708D
:102928000E4B1B6883B90E4B0E480093D02201232F
:102938004FF49E7100680BF053FE064B00200122F5
:1029480058801A7002B070BD01212846FFF7A2FF17
:10295800F3E700BF00FC002051570110B008002029
:1029680042413831400C0020084A09481378591C64
:10297800117008491B015A185850074B536047F605
:1029880070731381054BD360704700BFA8080020FF
:1029980005570110380800202A5701108126001019
:1029A8002DE9FF41B34B1E683368012204460F46E8
:1029B8009B680DEB02013046984718B9002004B017
:1029C800BDE8F0819DF80130A3F15002092A1AD818
:1029D800A94D95F90030002B04DAA8480021FEF72C
:1029E800E7FC28702878FEF793FD95F900502D1A1A
:1029F80018BF01259DF80110E9B9A14920460FF03B
:102A0800F3FB0520DBE7A3F15A02032A07D89D4D03
:102A180095F90030002BE5DA00219B48DFE75E2BB3
:102A280007D19A4D95F90030002BDBDA0021984840
:102A3800D5E70025DEE7082905D1964920460FF09D
:102A4800D3FB0620BBE71029F7D050293CD1924B85
:102A580000221146186807F0A0FF014620B9072296
:102A680020460FF043F9ECE7013000D01DB10722F2
:102A78004FF0FF31F4E788884B880A89C61ACB885B
:102A8800D51A0B8823804B8840F23D3003EB560360
:102A980043439B0AA370CB8840F2EE4203EB5503F5
:102AA800534370436A439B0A800A920AE370207179
:102AB80062710B88072BC4D94B895B2213FB02F385
:102AC800764ADB111370BCE7602904D1734B1B787D
:102AD8002370012073E7A1F15103062B34D86E4B04
:102AE800503989B203AA186807F057FF014620B980
:102AF800052220460FF0FAF883E7421C00D01DB1EA
:102B080005224FF0FF31F4E780884B880A89C61AFE
:102B1800CB88D51ABDF80C3023704B8840F23D3075
:102B280003EB560343439B0A6370CB8840F2EE42A3
:102B380003EB5503534370436A439B0A800A920A86
:102B4800A370E07022715CE758293ED133680222F5
:102B58009B6802A93046984701287FF72FAF4E4B54
:102B6800BDF80810186803AA07F017FF014608B94E
:102B7800062275E7431C00D00DB1062278E780884D
:102B88004B880A89C61ACB88D51ABDF80C30237031
:102B98004B8840F23D3003EB560343439B0A637076
:102BA800CB8840F2EE4203EB5503534370436A432C
:102BB8009B0A920A800A2271A370E0704B895B22FB
:102BC80013FB02F3DB1163713BE75A2940F0838062
:102BD800336801229B6801A93046984701280246BC
:102BE80062D133680DF102019B683046984701288D
:102BF8005AD1336801229B680DF10301304698478A
:102C0800012851D1002D4FD19DF9040000EB40005F
:102C1800C0EB001080007F2300B290FBF3F004F0BB
:102C280015FD1F4A13884FF6FF718B42904643D11A
:102C38001C4E9DF803503278AA420DD0002D42D088
:102C48000120FEF709F9FF238DF808308DF80C30C4
:102C580003A902A80BF052FF9DF80230A8F8003033
:102C680039469DF803303370204604F01DFD80B2CC
:102C7800A5E600BF700A00201C000020C83A011019
:102C8800885701101D0000200F4601101E0000206B
:102C9800055701108D570110280800207D0A0020D3
:102CA8001A000020740A002004224FF0FF31204649
:102CB8000FF01CF8042082E69DF802209A42B7D053
:102CC80004F0E2FCB4E72846FEF7C6F88DF8085091
:102CD8008DF80C50BCE75E2931D1336803229B681C
:102CE800214630469847032800D13DB103224FF0D2
:102CF800FF3120460EF0FAFF032060E6A2786378E1
:102D0800257800324FF0CF0140F23B1013FB01F35E
:102D180018BF0122FF216843B0FBF1F0B3FBF1F1CA
:102D280080B2FFF745FD03AB02AA01A907F086FAB6
:102D3800019B2370029B6370039BA370DCE76229ED
:102D480035D1336830469B6801220DF1030198475D
:102D58000128064622D10DBB204B29461B788DF849
:102D68000C3003A8FEF794FA01289DF8033008D127
:102D7800003318BF01235B428DF808308DF80C50E2
:102D880008E073B13046FEF767F8FF238DF8083086
:102D98008DF80C3003A902A80BF0B0FE01202070BA
:102DA8000DE62846FEF758F88DF80850E6E7422960
:102DB800F4D10B4B00221146186807F0EEFD431EB4
:102DC80003339FBF43888288D21A03EB52029BBF0A
:102DD80040F23D33534300239B0A79E61C00002050
:102DE8002808002010B5074C94F90040062C0A4624
:102DF80002D1FFF7D5FD10BD034B0146186808F056
:102E08006BFFF8E71F00002028080020084A09493E
:102E18001388098810B5994281BF074909685C1C65
:102E2800CB5C83BF037014800120002010BD00BF5D
:102E38005C0900206C0A002060090020014B036037
:102E4800FF2070476C090020F0B51A4C1A4EDFF8C5
:102E580078C08FB200233D1D23803580174C12B3F4
:102E680025464CF2AF1225F8062BCCF800401A463E
:102E78005FFA83FE714505D915F801EB724492B2E9
:102E88000133F5E7BB1DA2803380DCF80030987071
:102E9800D9700B4B01221A700A4B18680368BDE8F9
:102EA800F0405B691847A31CCCF800304CF2AE1315
:102EB8006380EAE75C0900206C0A002066090020AC
:102EC80058090020700A002060090020034B0A46B8
:102ED800C3F8060004210120FFF7B6BF66090020E9
:102EE800034B0A46987101210320FFF7ADBF00BFCD
:102EF800660900201F28F7B505460E461C4603D96B
:102F0800FEF712FC03B0F0BD02280FD100213046B5
:102F1800FEF71FFB002805DA21466FF00200FFF7D5
:102F2800DFFFEFE72146FFF7D1FFEBE70C280BD1D6
:102F3800012AF1D119463078FEF738FC0028E1DA89
:102F480021466FF00500EAE70E2822D1384B1B789E
:102F58001BB921466FF00100E1E7364B36481B6884
:102F6800364945814CF2AB12B2EB134F41F20132B4
:102F780018BF1346C38003230372002343720A2237
:102F88000C300FF053F9224610210F20FFF75CFF99
:102F9800B8E7102808D1012ABED1294B1A700A783F
:102FA8005A7021460020BEE7122811D1042AB3D155
:102FB80000250DF107008DF807500CF0E5FF0123FF
:102FC800B11C0DF107008DF807300CF0DDFFE8E7C4
:102FD80014280AD1032A9FD10120FDF73DFFB21C16
:102FE800711C30460BF012FEDBE716280BD1022AC3
:102FF80092D14B7813B10120FDF72EFF711C30469A
:103008000BF07CFDCDE718280DD10BF075FB07EE12
:10301800100AF6EE007A77EE277A2146FCEEE77A78
:1030280017EE900A7FE719466FF0030077E700BFB5
:103038006409002038500440660900202546011024
:103048005909002030B5144687B01D460A78007823
:1030580021460023FFF74EFF094B1A680024937896
:10306800CDE90344111D0291D27801928122009288
:1030780021460122284606F08CFA204607B030BDCA
:10308800600900202DE9F041DFF86881534D92B0C6
:10309800444698F80070052F00F29780DFE807F0A3
:1030A80003081F596B8D4E4BFF221A70012314E041
:1030B8004C4B1868036801229B680DF1070198477B
:1030C800002800F08480464A9DF807101378464887
:1030D800117043EA0123038002232370D9E7424B8E
:1030E8001B884CF2AE12934214D13E4E30680368EE
:1030F800DB68984701286ADD30683C49036801228B
:103108009B6898473068036801229B68294698475E
:103118000323E2E74CF2AF129342C7D1314E306835
:103128000368DB689847032851DD30682F49036836
:1031380001229B6898473068036801229B682946EA
:10314800984730682A49036802229B6898470423F5
:10315800C3E72B78402B2ED8224E30680368DB68F3
:1031680098472A78904232DB3068036802A99B6846
:1031780098470523B1E72B78402B1CD8194E3068A7
:103188000368DB6898472A78904220DB3068036838
:1031980002AE9B6831469847002228781346D1B280
:1031A800884204D9B15C0B449BB20132F7E7104A5C
:1031B80012889A42DDD000238FE70C482A780078DD
:1031C800012302A9FFF796FEF5E700232370237871
:1031D800BB427FF45EAF12B0BDE8F081780A0020F0
:1031E8007C0A0020700A0020760A0020790A002054
:1031F8007A0A002065090020024B002218781A700C
:10320800704700BF58090020062838B5054600F267
:103218008380434C206810B103685B68984700229C
:10322800404941480CF0E8FC404A414900231370EA
:10323800404A1570404A1380404A1380404A116042
:10324800404A013D1370052D4CD8DFE805F00321F5
:103258002E32393C334B1D786DB100F061FA05F020
:1032680019FF394800F04EFA384B186820600021E1
:1032780000F0E4F913E000F053FA05F00BFF05F055
:10328800FDFE334B18682060294605F091FE06E0E4
:10329800304B0122186820600021FEF7A9FD206844
:1032A80003681B689847002038BD2B4B1B682360B8
:1032B800F5E72A4D01212868FDF7A8F82B68F6E7FD
:1032C800264D0021F7E7234D012128682060FEF7ED
:1032D8004BFD002201212868FEF78AFD114B0122CF
:1032E8001A70DCE70F4B1B785BB100F019FA05F098
:1032F800D1FE154800F006FA144B18682060012129
:10330800B6E700F00DFA05F0C5FE05F0B7FE104B64
:10331800186820600121B8E74FF0FF30C4E700BF0C
:10332800700A00207E0A0020DF590110650900207C
:10333800660900201F0000205C0900206C0A00209C
:103348006009002059090020D52C0010800A0020AF
:10335800D00B002044090020840A00201C0800200B
:103368002DE9F0412B4EDFF8D0802B4B2B4F86B048
:10337800002401252146CDE9014400954FF47A72D5
:1033880030460CF05FFC5423CDE900530294244BE3
:1033980040F2E732102140460CF054FC04234FF46D
:1033A8009642CDE90032214602941E4B40F2E632A5
:1033B80038460CF047FC1C4B0095CDE9014440F21F
:1033C800E5324FF4007119480CF03CFC22460DF12F
:1033D800130140460CF010FC154B9DF813101868AB
:1033E800FEF7C2FC224605A938460CF005FC114B35
:1033F8000599186800F07AFB22460DF11201304653
:103408000CF0FAFB9DF81200FFF7FEFE06B0BDE8CF
:10341800F08100BF5B580110935701102359011028
:1034280069580110CA58011031590110DF590110AB
:1034380044090020840A0020BE58011010B5084C29
:10344800084905F05DFF2046FEF7D6FC204600F04F
:1034580057FBFCF7DDFFFFF783FF002010BD00BF1F
:10346800D52C0010FC59011010B5074C237823B156
:10347800601C0AF03BFD00232370044B18680368A6
:10348800BDE810401B69184759090020700A002040
:10349800014B01221A70704764090020014B18681B
:1034A800704700BF700A0020D0E90520101A704745
:1034B800044B0020C3F81802034B4FF40002C3F872
:1034C800802070470010104000E100E0F0B503468E
:1034D80000208446904213D0D3E90545641B002C94
:1034E8000EDDDE689F680135741C37F816609D6133
:1034F8005D68AC4208BF6446DC600E540130E9E701
:10350800F0BDFFFF0D4B0E494FF4804210B5084641
:10351800C3F8142296220C6864070BD4013AFAD136
:10352800C3F8142210220168490703D4013AFAD1DA
:10353800012002E00020C3F8140210BD0010104062
:1035480014610F4073B590F83D400546BCB10022A8
:1035580004210D480D4E09F07CFD01A80CF006F879
:103568002846FFF7CFFF044660B901980CF004F82D
:10357800B042F5D901220421034809F06AFD20462A
:1035880002B070BD0124F5E700500C4020A10700EF
:1035980038B50F4B042405469C63F022052303210C
:1035A800012009F03FFA21460523F022012009F005
:1035B80039FA012313211846F02209F033FA054B92
:1035C8004FF400021A602846FFF7BCFF002038BD00
:1035D8000010104000E100E038B590F83D30044696
:1035E800C3B1D0E90D239A421AD090F830509DB952
:1035F80090F83C300133DBB2052B80F83C3007D122
:10360800FFF7A0FF0B4928460BF0FEFD84F83C505D
:10361800636BA363002038BD002380F83C30F7E7D4
:10362800054B4FF48042C3F814220022C3F8142239
:10363800EEE700BFE35A01100010104080F83D107B
:10364800044B21B14FF48042C3F818227047C3F8E5
:103658001812704700101040F0B5254B0360102673
:1036680089B00446466020200F460FF00FFE002563
:10367800A060C4E90355C4E90555E66120200FF0B0
:1036880005FE1C4B07930F232062C4E909550293DA
:10369800E762042302A91848CDE90355CDE90535A9
:1036A80009F080FC144A082593680193013DFBD179
:1036B8000121114809F0C4FC0F210F4809F0D5FC7D
:1036C8002A460F210C4809F0C4FC012204210A48AB
:1036D80009F0BFFC094B83F81753094B84F83050A5
:1036E8002046C4E90D55A587C3F8185209B0F0BDA6
:1036F800F45A011000CB280C00500C4000E100E007
:103708000010104038B5054640200FF0DDFD294671
:103718000446FFF7A1FF014B1C6038BD800A00205A
:1037280038B50A4D2C686CB1206A094B236008B182
:103738000FF0AEFDA06808B10FF0AAFD40212046A9
:103748000FF0A0FD00232B6038BD00BF800A0020C9
:10375800F45A011070B5C56804460E464DB90168A3
:10376800036940684900984743080128E3600CD979
:10377800A560D4E90123591C32F81330A1603380C5
:10378800E368013BE360012070BD2846FCE7D0E90F
:10379800042370B5046823449B1A002B0DDDC5680B
:1037A80046686B1C0132A342C36026F815100261FB
:1037B80001D10023C360012000E0002070BDFFFF9D
:1037C800F7B590F83D20294C05468AB3284A4FF4AE
:1037D8008041C2F814120021C2F814120422A6680B
:1037E800226200F11C07E36813F002030BD00DF10D
:1037F80006013846FFF7AEFF08B9ADF80600BDF878
:103808000630A360EFE706F47F42B2F5B44F07D164
:10381800012385F830306B6B01336B6303B0F0BD67
:10382800B2F5B64FF5D1B1B2281DFFF7B0FFEFE7FB
:103838000422A668226200F11C07E3689B070BD5E7
:103848000DF106013846FFF785FF08B9ADF8060007
:10385800BDF80630A360F0E706F47F43B3F5B64F32
:10386800DCD1B1B2281DFFF792FFD7E700500C401A
:1038780000101040064B1B7823B1064B186808B19E
:10388800FFF79EBF044B186808B105F043BB7047AB
:103898007E0A0020800A0020D00B0020D0E90620F4
:1038A800101A704703460020F0B50546904214D020
:1038B800D3E90646A41B002C0FDDD3E90364671C7B
:1038C8001F61345D0C54DC691E690134DC619C683D
:1038D800A64208BF1D610130E8E7F0BD13B50446F4
:1038E8000DF10700FFF792FA63689DF807201A6048
:1038F800002002B010BDFFFF08B5F022012300210F
:10390800022009F08FF801231946F022022009F05D
:1039180089F80023F0220321012009F083F800230D
:10392800F0220421012009F07DF8034B4FF080724A
:103938001A60002008BD00BF00E100E008B5F022D1
:1039480004230021022009F06DF80423F02201214C
:10395800022009F067F8034B4FF08072C3F880200B
:10396800002008BD00E100E0054B1B782BB190F862
:10397800343013B94268136013600020704700BFE9
:103988007E0A00204268936803F00E032DE9F34194
:10399800042B4FF00001044680F834101CD1106845
:1039A800A368E2691344A2699B1A8B420CDD636920
:1039B800E2685D1C6561D054A36962690133A36143
:1039C800A3689A4208BF61611E4B1B780BB9FFF7C9
:1039D80059FB02B0BDE8F0810C2B02D113680193AA
:1039E800F7E7022BF5D1174E102501273378FBB1E5
:1039F800D4F82C80B8F1000F07D1236BD4E9081054
:103A08009847E06278B1C4F82880D4E90923591CA2
:103A1800A162D25CE36A8DF80420013BE36263682B
:103A280084F834701A60013D15F0FF05DED1D0E747
:103A380001A8FFF7EBF90028F5D063689DF804208A
:103A4800F0E700BF7E0A0020014B1868FFF79ABF15
:103A5800840A0020F0B5224B03600446402085B05C
:103A6800A06017460E460FF011FC0025E0602020EC
:103A7800C4E90455C4E9065520620FF007FC4FF469
:103A8800964301934FF440736062ADF8083001A982
:103A9800144B27633046C4E90A55666084F83450ED
:103AA80003938DF80A5009F033FC40F2011369467C
:103AB8006068009309F01EFD6068012109F034FD7B
:103AC80029466068012209F0F5FC01226068114668
:103AD80009F0F0FC044B204683F8185305B0F0BDFC
:103AE800145B011000CB280C00E100E008B5034A84
:103AF800406809F06FFB002008BD00BF00CB280C10
:103B080038B5054638200FF0DFFB2A46034904463E
:103B1800FFF7A0FF024B1C6038BD00BF0010084033
:103B2800840A00202DE9F0438DB00023374A0B9317
:103B38000B9B934203D80B9B01330B93F8E7344C50
:103B4800DFF8D480DFF8D8900BF002FB2068FDF78F
:103B5800A1FC0AF00FFF0CF081FB2068FDF7CCF800
:103B6800206800F0DFFE2068FFF768FC00240E23C1
:103B7800CDE9053403220223CDE90032CDE9034320
:103B880002932246234B244801210CF05BF8234B77
:103B98000193A123009302941E4B21482246012140
:103BA8000CF050F819262546274600970DF12603F4
:103BB80009AA0DF1220140460CF01EF800280BDB83
:103BC800BDF82230032B07D1BDF8243023B9BDF846
:103BD80026300E2B08BF013500220AA948460CF0F2
:103BE8000BF8002805DB0D490A980EF0F3FA00B926
:103BF8000134013ED9D105B10CB90BF025FEFDF712
:103C0800F9FE00200DB0BDE8F08300BF9F25260017
:103C1800400C002084A001102C5B011025460110E7
:103C2800325B011037B5104B036004464FF4FA7548
:103C3800FEF70EF900230DF106010DF105008DF8D0
:103C48000530ADF806500CF09FF901230DF106017F
:103C58000DF105008DF80530ADF806500CF094F91B
:103C6800204603B030BD00BF985C011010B5044673
:103C7800FFF7D8FF204604210FF004FB204610BDB3
:103C8800084611461A46FEF799BB084611461A46D9
:103C98009DF80030FEF7F8BC07B5002269460F48CA
:103CA8000BF0AAFF01A900220D480BF0A5FF0D4B50
:103CB800009ADA60019A1A61694600220A480BF0F4
:103CC8009BFF002201A909480BF096FF084B009AB8
:103CD800DA60019A1A6103B05DF804FB535B0110C6
:103CE8005E5B01109C0A0020695B0110755B011086
:103CF800880A0020FFF7D0BF2DE9FF47324B036049
:103D0800012401F119039C40E443DFF8D4A0DFF853
:103D1800D48004F07E44002544F4C0744FF00409B4
:103D28004FF4AF7306460F46CDE9013541F28C32A8
:103D3800264BCDF80090214650460BF083FF4146B4
:103D48005046DFF8A4A00CF0A9F84FF41673CDE99B
:103D5800009341F28B321E4B0295214650460BF0E0
:103D680071FF41465046DFF884A00CF097F84FF4F5
:103D7800FA73CDE9009341F28A32164B0295214637
:103D880050460BF05FFF41465046DFF864A00CF048
:103D980085F84FF42F7341F28932CDE9009321461B
:103DA8000D4B029550460BF04DFF414650460CF026
:103DB80075F8FFF771FF094B38461D80FEF7B2FA18
:103DC800304604B0BDE8F087985C0110815B0110B3
:103DD800C55B0110075C01104C5C0110AA080020AB
:103DE800535B0110E53B00105E5B0110695B01103D
:103DF800755B011038B50649054604200FF04AFAEC
:103E0800044610B12946FFF777FF204638BD00BFAA
:103E180028B1011008B5084B00221146186806F0B1
:103E2800BCFD38B1C3682BB19A7A1E2A82BF5A7872
:103E3800024B1A8008BD00BF28080020200000207F
:103E480038B5114C206807F027FE20680F4C06F0A3
:103E5800F1FDB4F900300133054601D1FFF7DAFF6F
:103E6800B4F90030002B0CDB286830B142789A4254
:103E780001D1143038BD406AF7E74FF6FF7323804D
:103E8800F8E70020F6E700BF2808002020000020FF
:103E98004368B3F1004F37B504460D4617D0CB1A27
:103EA800D0E903216A4301FB032301684FF47A72C6
:103EB80093FBF2F30B4493420CDD026020460DF1B4
:103EC800060150F8083BADF806300CF05DF8656067
:103ED80003B030BD002BB8BF00230360EEE7FFFF3F
:103EE80010B50846FEF7E8F860BB174B1870FFF7E7
:103EF800A7FFC8B1C38804894188E41A04EBD474C5
:103F080003EB6404838811485B1A03EBD37301EB5A
:103F18006301A4B289B2C1F19E01683CFFF7B8FF02
:103F280021460B48FFF7B4FF0A4B186806F082FDDC
:103F3800094B014601221868FCF718FFFCF792FFAD
:103F4800002010BD0120FCE700FC00209C0A002096
:103F5800880A002028080020400C002007B54FF4EC
:103F6800FA7340F8083B0DF10601ADF806300CF085
:103F78000BF803B05DF804FB38B5124A1248137801
:103F8800591C117011491B015A185850104B536095
:103F980042F620730F4813810F4BD36000244FF073
:103FA80000450472C0E903444560FFF7D7FF0B489A
:103FB80001230372C0E903444560BDE83840FFF7B8
:103FC800CDBF00BFA8080020E33A01103808002040
:103FD800395B01109C0A0020E53C0010880A00208B
:103FE8004F230B80342313807047FFFF10B5044B19
:103FF80003600446FDF70AFB03F032FC204610BDBF
:10400800D85C011010B50446FFF7F0FF20460421E4
:104018000FF038F9204610BD08B504F001FE002065
:1040280008BDC8B203F0D4B9022910B50C460AD8A5
:10403800064B53F82130136003F0D4F980B2031B08
:104048005842584110BD4FF0FF30FBE724000020D4
:1040580037B50E4B03600D46012304460DF10700EA
:104068008DF807300AF020F868B203F04FFC022000
:10407800FDF796FA064BB3F90000002802DBC0B240
:1040880003F0A6F9204603B030BD00BFD85C01108C
:10409800AA08002038B50649054604200FF0FAF8AA
:1040A800044610B12946FFF7D3FF204638BD00BFAC
:1040B80028B1011073B501A815460E461C46FEF737
:1040C800BDFE019982B2284656B903F091F900283D
:1040D80009DA21466FF00100FEF702FF02B070BD59
:1040E80003F00CFAF3E7C1B222463120FEF7ACFE2A
:1040F800F4E770B5302916469DF810500ED1022B02
:1041080006D12B4652783178FFF7D4FF002070BDD6
:1041180029466FF00200FEF7E3FEF7E736290BD1D8
:10412800012B29D192F9000003F07CFA031E25DB4C
:104138002946FEF7CBFEE9E73A2906D1022B1BD127
:10414800B2F9000003F082FAF0E73C2906D1022B0D
:1041580012D1B2F9000003F085FAE7E7382905D152
:10416800012B09D1107803F083FADFE73E2908D143
:1041780013B903F089FAD9E76FF00203294658B258
:10418800C9E74FF0FF30C2E7084A09481378591CBD
:10419800117008491B015A185850074B536043F6D1
:1041A80030731381054BD360704700BFA808002007
:1041B8000F46011038080020B85C0110853F001038
:1041C80000780B78C01A7047B0F90200B1F90230D4
:1041D800C01A704730B50C468DB0594905460DF0E8
:1041E800F9FFE0B9574B22881A8000210BABCDE9C3
:1041F8000513CDE90711544B544A1B880493022335
:10420800039312885248CDE901324E4A128800922F
:10421800504A0068B2F9002005F013FE17E04E4935
:1042280028460DF0D7FF50B92388484A1380052245
:1042380003EB4303B3FBF2F3434A1380D5E7474943
:1042480028460DF0C7FF20B92288454B1A800DB0CB
:1042580030BD444928460DF0BDFF10B92288424BB5
:10426800F4E7424928460DF0B5FF10B92288404BC3
:10427800ECE7404928460DF0ADFF10B922883E4BC7
:10428800E4E73E4928460DF0A5FF30B93C4A2388AB
:1042980013603C4A5B431360D9E73B4928460DF05D
:1042A80099FF18B9394B22681A60D0E7384928466F
:1042B8000DF090FF18B92278364B1A70C7E73649C7
:1042C80028460DF087FF30B92378344A003318BFE9
:1042D80001231370BBE7324928460DF07BFF10B964
:1042E8002278304BE9E7304928460DF073FF30B9A2
:1042F80023782E4A1B01D3805B081381A7E72C493A
:1043080028460DF067FF10B922782A4BD5E72A49CD
:1043180028460DF05FFF10B92278284BCDE72849D1
:1043280028460DF057FF10B92278264BC5E72649D5
:1043380028460DF04FFF002889D12278234BBCE78F
:1043480071650110AC0B0020B80B0020B60B0020E3
:104358003C0C0020320000207F6501108E650110A2
:104368000C0B0020A1650110080B0020B46501109A
:10437800200B0020CD6501100A0B0020E465011018
:10438800140B00202C0B0020F8650110240B0020D2
:104398000D660110DC0A002018660110610B002070
:1043A8002D660110130B00203C660110780B0020CD
:1043B80053660110330B002065660110ED0A0020DA
:1043C80072660110AA0B002075660110B40B00205C
:1043D8000A7803789A4205D140784B781B1A5842DC
:1043E800584170470020704702780B7840789B1A34
:1043F8004A78101A404303FB030398B270470278C7
:1044080083789B1AC2784078101A404303FB030351
:1044180098B27047F0B571B16AB18478072C0AD8A0
:10442800061D0025EFB2BC4207D956F8047B8F421F
:1044380005F10105F6D1002007E0651C857000EB49
:104448008400416013B98A600120F0BDCA60FBE7AF
:1044580070B50D78047849789DF810602C1B457864
:1044680010784D1B19785B78091A50781B1A05FBD0
:1044780003F004FB0102694304FB131316B11AB9D4
:10448800064809E0002AFBDD4FF47A70584390FB98
:10449800F2F00028B8BF404270BD00BF40420F0094
:1044A80038B50A78437800784C78101AE41A0DF079
:1044B800B5FB054620460DF0B1FB8542D4BF002070
:1044C800012038BD2DE9F047B4B04FF0FF33051E89
:1044D8000B93C0F229814FF00108193508FA05F548
:1044E800ED4305F07E45002445F4807602274FF021
:1044F8000409BF4B00974FF47A623146CDE9019425
:10450800BC480BF09FFBBC49BA480BF0C7FC2323FF
:10451800CDE9007341F28832B84B02943146B8486D
:104528000BF090FBB449B6480BF0B8FCB54B0097BC
:1045380041F288323146CDE90144B3480BF082FBA1
:10454800AD49B1480BF0AAFC6423CDE9007341F2F0
:104558008832AE4B02943146AD480BF073FBA64946
:10456800AB480BF09BFC0D23CDE900734FF47A6246
:10457800A84B02943146A8480BF064FB9E49A64814
:104588000BF08CFC0623CDE900734FF47A62A34B41
:1045980002943146A2480BF055FB9749A0480BF00E
:1045A8007DFC0A23CDE900734FF47A629D4B029497
:1045B80031469D480BF046FB41F2883A8E499A48AD
:1045C8000BF06CFC994B02944FF47A623146CDE9BA
:1045D800009A97480BF036FB45F4007986499448D1
:1045E8000BF05CFC934BCDF8008052464946CDE970
:1045F800014491480BF026FB7F498F480BF04EFC95
:104608008E4BCDF8008040F69F723146CDE901848B
:104618008B480BF017FB784989480BF03FFC894B16
:10462800CDF8008040F69E723146CDE90184864877
:104638000BF008FB704984480BF030FC834BCDF835
:10464800008040F69D723146CDE9018480480BF028
:10465800F9FA69497E480BF021FC00977D4B7E48AA
:104668007E4F40F69C7245F08001CDE901440BF085
:10467800E9FA7B4BCDF8008040F69B724946CDE9BC
:10468800014478480BF0DEFA5B4976480BF006FCEB
:10469800754BCDF8008040F69A724946CDE9014441
:1046A80072480BF0CFFA49EA080653496F480BF0F5
:1046B800F5FB6F4BCDF800804FF47A623146CDE9B7
:1046C80001446C480BF0BEFA4B496A480BF0E6FB14
:1046D8003146CDF80080664B6748DFF8EC81674EBD
:1046E8004FF47A62CDE901440BF0ACFA42496248D2
:1046F8000BF0D4FB224641460CA80DF03BFD2246A8
:10470800394614A80DF036FD0023CDE90163C4F540
:104718003B62A1230093083214AB29460CA801344C
:104728000BF090FA102CE5D1554D564C3148564EA9
:10473800564F294600220BF05FFA214600223048E6
:104748000BF05AFA238852492F48052203EB4303FA
:10475800B3FBF2F3002233800BF04EFA00224D49EE
:104768002B480BF049FA00224B492B480BF044FA2E
:1047780000224A492A480BF03FFA394600222A48C3
:104788000BF03AFA3B68464A464F474928485B438C
:10479800136000220BF030FA0022444926480BF03F
:1047A8002BFA3946002228480BF026FA3B78404A73
:1047B80023481B01D3805B081381394600220BF084
:1047C8001BFA00223B4922480BF016FA00223A490C
:1047D80021480BF011FA0022384922480BF00CFA54
:1047E8000022374921480BF007FA002235496DE0CD
:1047F800965D011071650110C5400010ED5D011056
:104808007F6501102E5E01108E650110685E011033
:10481800A1650110A45E0110B4650110F85E0110D5
:10482800CD650110445F0110E4650110835F01103C
:10483800F8650110096001100D660110AD600110E6
:104848002D660110046101103C66011063610110BE
:1048580053660110BD6101104A6201101164011014
:104868005D62011065660110306301101866011061
:10487800DA630110726601107566011084A00110D8
:10488800AC0B0020B60B0020B80B0020140B002046
:104898000C0B0020080B0020200B00200A0B002026
:1048A8002C0B0020130B0020240B0020DC0A002016
:1048B800780B0020330B0020340B0020ED0A002079
:1048C800610B0020AA0B00200064011010480BF0B7
:1048D80093F900220F4910480BF08EF900210BAB19
:1048E800CDE90711CDE90513338804930223039317
:1048F80022880A48CDE901322A880092084A0068CD
:10490800B2F9002005F09DFA0B9834B0BDE8F087A5
:1049180072660110B40B0020756601103C0C002073
:104928003200002038B50D4D0D490E4C04F0E8FC5E
:1049380000220D49286805F091FA002220800B49D1
:10494800286805F08BFA0A4B1880B4F90030002B60
:10495800ACBFC0174FF0FF3038BD00BF3C0C002083
:10496800D066011030000020A5660110AE66011067
:10497800320000202DE9F047464B400800EB800448
:104988001D78C0EB04100E46174684B2002D3FD0A8
:10499800DFF80C81DFF80C91DFF80CA10025A9B233
:1049A8004A0036F81130B3F57F4F70D2324452883E
:1049B800B2F57F4F6BD2B94269D2180421D41104E1
:1049C8001FD5C2F30E02D11AB8F8000089B2884286
:1049D80017D2B9F80000884213D91A44BAF800303F
:1049E80003EB520304EBD3039BB241F2130293424D
:1049F80009D8294A116831F8132042F4806221F855
:104A080013200135CBE7254900200AF0FDFBF8E724
:104A1800DFF88C80DFF88C90DFF88CA0A9B24B000F
:104A280036F81120B2F57F4F31D233445B88B3F5A5
:104A38007F4F2CD2B9422AD2100421D519041FD491
:104A4800C2F30E02991AB8F8000089B2884217D248
:104A5800B9F80000884213D91A44BAF8003003EBB9
:104A6800520304EBD3039BB241F21302934209D8D9
:104A7800094A116831F8132042F4806221F81320A2
:104A88000135CBE7054900200AF0BEFBF8E7002016
:104A9800BDE8F087DC0A0020CC0B0020415D011046
:104AA8000C0B0020080B0020AC0B00202DE9F84F60
:104AB8009946494B1C7805460E469046002C44D032
:104AC800DFF820A1DFF820B1444A0027B9B238F84E
:104AD8001130B3F57F4F7CD289457AD91904C3F3D5
:104AE8008C0403D46B1C33550137EFE7315D002983
:104AF800FAD06B1C5B1A9B00BAF800109BB2994263
:104B08001BD2BBF80010994217D99E2C15D8A5EBDB
:104B1800D3035B1003EB8301C3EB011303EB5403D3
:104B28009BB241F213018B4209D82D49086830F82D
:104B3800131041F4006120F813100023D3E7114645
:104B480000200AF061FB254AF7E7DFF898A0DFF8B4
:104B580098B0224AA1B238F81130B3F57F4F38D255
:104B6800894536D9C3F38C071B0403D56B1CF35551
:104B78000134EFE7F15D0029FAD06B1C5B1A9B004A
:104B8800BAF800109BB299421BD2BBF800109942A8
:104B980017D99E2F15D8A5EBD3035B1003EB830120
:104BA800C3EB011303EB57039BB241F213018B4292
:104BB80009D80B49086830F8131041F4006120F84F
:104BC80013100023D3E7114600200AF01DFB034A07
:104BD800F7E70020BDE8F88FDC0A0020415D0110EE
:104BE800CC0B00200C0B0020080B002070B5164BD6
:104BF800164E1D688AB041F20C030024CDE9083432
:104C0800B2223423CDE9063202234F22CDE9042310
:104C1800CDE902030E4B306841211C35CDE9003146
:104C280042F218026423294604F020FE242808D101
:104C380042F23C022946306804F0D6FA20460AB00F
:104C480070BD4FF0FF30FAE7F00A0020400C00205A
:104C58004C494E47F8B501F100432DED048B013B5B
:104C68000E461746017800EB430210F813305278CD
:104C78005B1A4178521A52B25BB207EE902A002AA8
:104C8800B8BF5242002BB8EEE77A07EE903AB8BFA9
:104C98005B429A420446F8EEE77A37DDC7EE879A18
:104CA80001259FED3F8ABFEE009AB54266DA2BB226
:104CB80004EB430214F8133008EE903A5378627804
:104CC8009B1A07EE103A2378F8EEE87A08EE903A45
:104CD800B8EEC77AF8EEE88AEDB2E7EE298A77EE01
:104CE800E88A18EE900A0DF06BFE07EE900AB4EE13
:104CF800E79AF1EE10FA48BF3D7005F1010548BF8B
:104D0800B0EE679A38EE288A6DB2CEE7C7EE279ADA
:104D180001259FED238ABFEE009AB5422EDA2BB209
:104D280004EB430214F81330527808EE902A2278E4
:104D38009B1A07EE103A6378F8EEE87A08EE903A94
:104D4800B8EEC77AF8EEE88AEDB2E7EE298A77EE90
:104D5800E88A18EE900A0DF033FE07EE900AB4EEDA
:104D6800E79AF1EE10FA48BF3D7005F1010548BF1A
:104D7800B0EE679A38EE288A6DB2CEE718EE100AC0
:104D88000DF01EFE013E07EE906A07EE100AF8EEDF
:104D9800E77ABDEC048BC7EE277A17EE900AF8BDC8
:104DA800000000002DE9F0435C4B1F783B0600F142
:104DB800B28001F10042013A00EB42044578647880
:104DC80010F81220564B641B05781B6864B2521BFE
:104DD80052B2002CB8BF6442002AB8BF5242944273
:104DE80001F1FF3141DDDFF840E14E4E4FF0000C9C
:104DF8005FFA8CF200EB420410F81280647804EB3E
:104E08008405C4EB05144444A4B28A4233F81490D0
:104E180009EA0E094FEA440549EA070968DA23F85E
:104E28001490B8F1000F0AD1AC1CB8F14C0F1A5B02
:104E380042EA06021A5313D90CF1010CD8E7AC1E4A
:104E4800B8F1010F1A5B42EA06021A53ECD92C1F7B
:104E5800B8F14D0F1A5B42EA06021A53ECD8E3E7A1
:104E680004355A5B32435A53E6E7DFF8BC80DFF873
:104E7800B4C04FF0000E5FFA8EF200EB42048A4293
:104E8800657805EB8506C5EB061410F81260264414
:104E9800B6B24FEA460433F8169009EA080949EA17
:104EA800070925DA23F8169055B904F19E06312D25
:104EB8009A5B42EA0C029A5313D90EF1010EDAE713
:104EC800A4F19E06012D9A5B42EA0C029A53ECD992
:104ED800A4F59E76322D9A5B42EA0C029A53ECD8DE
:104EE800E3E704F59E741A5B42EA0C021A53E4E7FE
:104EF80012B200EB420110F81220497801EB81044C
:104F0800C1EB04110A4492B233F8121001F47C4147
:104F18000F4323F81270BDE8F08300BFBF0A0020DA
:104F2800CC0B00200080FFFF00FCFFFFF0B54578A8
:104F3800002D4DD0274CD4F800C00C8804F1004750
:104F48004F3F7E003CF8177017F4406F17D03F04AE
:104F580015D4013D45701578008823F815004F3C9D
:104F6800A4B20C803CF814306FEA43436FEA534311
:104F78002CF814301378013313700120F0BD077832
:104F880066449FB136F802EC1EF4406F0CD01EF454
:104F9800004F09D1013D013F457007701578008821
:104FA80023F81500503CDBE74D2F11D8B6F802E086
:104FB8001EF440660CD01EF4004F09D1013D0137A4
:104FC800457007701578008823F815004E3CC7E730
:104FD8000020D3E7CC0B0020F0B58446007820B33E
:104FE8002D4C27680C8804F10046013E750037F8FF
:104FF800166016F4406F19D0360417D401388CF8AF
:1050080000001078BCF8005023F81050013CA4B2FE
:105018000C8037F814306FEA43436FEA534327F89C
:1050280014301378013313700120F0BD9CF801602F
:105038003D44B6B135F89EEC1EF4406F0FD01EF417
:10504800004F0CD10138013E8CF801608CF800004B
:105058001078BCF8005023F81050503CD7E7322E97
:1050680017D8B5F89EE01EF4406504F14E0410D040
:105078001EF4004F0DD1013801368CF801608CF810
:1050880000001078BCF8005023F810500C80A4B22F
:10509800BFE70020C9E700BFCC0B0020F0B590F8AF
:1050A80000C0BCF14D0F5AD82E4C26680C88651CE0
:1050B8004FEA450E36F8157017F4406F18D03F04C4
:1050C80016D40CF1010C80F800C01478008823F87D
:1050D80014000D80ADB236F815306FEA43436FEA1D
:1050E800534326F815301378013313700120F0BDAF
:1050F8004578B644EDB13EF89E7C17F4406F16D063
:105108003F0414D4013D45700CF101050570157874
:10511800008823F815004E3CA4B20C8036F81430F1
:105128006FEA43436FEA534326F81430DBE7322D26
:1051380015D8BEF89EE004F150071EF440640ED066
:105148001EF4004F0BD1013545700CF101050570B7
:105158001478008823F814000F80BCB2DEE7002022
:10516800C5E700BFCC0B00202DE9F74F3D4B90F869
:10517800018090F800904D780E78D3F800A04F2366
:1051880013FB089213FB05631AF812B01AF81320E0
:10519800934538D008D34346A8461D464B46B146EA
:1051A8001E465B4693461A4601922F4FFFF71CF99D
:1051B8003C68019A03464F2054B3617894F800C0C4
:1051C80010FB01C13AF81110C1F309018B451DD13B
:1051D800E17894F802C010FB01C13AF81110C1F34C
:1051E80009018A4212D1A28A9A420CD9A670E570A6
:1051F8004E44454476106D10A38284F8009084F8DC
:1052080001802674657403B0BDE8F08FA469D3E704
:1052180009EB060B08EB050A144901931C20CBF394
:10522800470BCAF3470A0EF035F80028EBD0019B6C
:1052380083823B8980F80090013380F80180867072
:10524800C5703B813B688461022280F810B080F809
:1052580011A0827413B938607860D4E77B689861CC
:10526800FAE700BFCC0B0020E00A002028B10110AB
:105278002DE9F74F437803EB8304C3EB041204785A
:105288001444554A0E46A4B21168A3EB06094FFA16
:1052980089F9013BA4F14F0B11F81470804629EAF3
:1052A800E9795BB21FFA8BFB92464B4518DBDAF8BB
:1052B800002012F81B20DDB25AB1974209D098F8A5
:1052C80000308DF8043001A940468DF80550FFF7ED
:1052D8004BFFABF14F0B6B1E1FFA8BFB5BB2E4E786
:1052E80098F8012002EB06094FFA89F9B9F1340F51
:1052F80002F1010204F14F05A8BF4FF0340952B280
:10530800ADB24A4598F8003016DADAF8001011F80C
:1053180015105FFA82FB49B18F4207D001A94046B8
:105328008DF804308DF805B0FFF71EFF4F350BF1EF
:105338000102ADB252B2E4E7A3EB06094FFA89F9CC
:10534800013B04F1FF3B29EAE9795BB21FFA8BFBC9
:105358004B4518DBDAF8002012F81B20DDB25AB1F1
:10536800974209D098F801308DF8045001A94046B9
:105378008DF80530FFF7F8FE0BF1FF3B6B1E1FFAA7
:105388008BFB5BB2E4E798F800301E4476B24F2EF0
:1053980003F1010304F10104A8BF4F265BB2A4B2D4
:1053A800B34216DADAF8002012F81420DDB25AB146
:1053B800974209D098F801308DF8045001A9404669
:1053C8008DF80530FFF7D0FE01346B1CA4B25BB238
:1053D800E6E703B0BDE8F08FCC0B00201D4A2DE9AD
:1053E800F84F13881C4EDFF874B0346813FB03F3CE
:1053F8009FB290464FF04F090CB3227863786568E6
:1054080019FB0323DBF8002012F813A0ADB12A78AA
:105418006B7819FB0323DBF8002012F813309A4548
:1054280009D029462046FEF7DFFF874203D32946E5
:105438002046FFF799FE6D68E8E76468DCE73468A2
:1054480034B1204698F80010FFF712FF6468F7E7B8
:10545800BDE8F88F0A0B0020D00A0020CC0B0020F2
:105468002DE9F04F4F4B1B880C225B4387B0534309
:10547800DB1002934C4E35680027002D00F08B801E
:10548800D5F8188005F1100344460593002C3BD04D
:1054980004F110010598D4F818A0FEF7A5FFBDF88F
:1054A8000830834272D9002301936B1C4FF04F0ED2
:1054B8000493A27C9DF80410AB7C8A422ED9072B5A
:1054C80048D83A4A14F811C0D2F8009004EB4102C7
:1054D80052781EFB02C219F81220039200225FFACA
:1054E80082FC9C4512D2049815F812B010F812C02C
:1054F80003981EFB0CBC013219F81CC06045EED1A4
:10550800019B01330193D4E74546B6E701BF013358
:10551800AB7434F8113025F81230F1E70020024658
:10552800014605F1010E5FFA80FC9C4509D215F889
:1055380010C061441EF810C0624489B292B20130B2
:10554800F1E7581001440244B1FBF3F1B2FBF3F365
:1055580029746B7433680022184690B1844217D1BD
:105568009C4204BFA369336073689C4208BF7260A1
:105578000AB1836993611C210DF084FE3389013BD4
:1055880033810137444508BFD046BFB254467DE752
:1055980002468069E1E7002F7FF46CAF07B0BDE8F1
:1055A800F08F00BF0A0B0020E00A0020CC0B00207F
:1055B8002DE9F04F1C469E7893F8038093F80490E9
:1055C80013789B1B5BB2002B85B0B8BF5B4201937D
:1055D8005378A3EB08035BB2002BB8BF5B4202937E
:1055E8003D4B0546D3F800A00F46A31CBAF1000FA7
:1055F8001DD09AF802204FF0010B0BF1FF31C9B210
:105608008A424FD95AF82B100979B9420CD1194658
:10561800504603920093FEF7DBFE009B039A18B1F5
:105628004AF82B40C4F80CA00BF1010BE5E72B4B13
:10563800DFF8ACA01868002D4AD04FF0000CAB7C06
:105648005FFA8CF2934241D905EB420315F8121028
:105658005B780093009A4F2313FB021E30F81E203C
:10566800C2F3090B5F451AD1019B9B46029B9B45E0
:105678001BDD2378C91A0029A6EB0303ACBF01215F
:105688004FF0FF31002BACBF01234FF0FF3399429D
:1056980002BF02EA0A0242EA090220F81E200CF1BF
:1056A800010CCCE7DAF824A0A0E76178009B5B1A2C
:1056B800002BA8EB0101ACBF01234FF0FF330029F9
:1056C800ACBF01214FF0FF318B42E1E7AD69B2E792
:1056D80005B0BDE8F08F00BF540B0020CC0B0020B4
:1056E80000FCFFFFF0B5064600200346E9B18A78C2
:1056F8009A421AD901EB83046468B44212D1013A80
:10570800D2B25D1C8A7001EB85051C46A24205D900
:105718006F6845F8047B0134E4B2F7E7013B421CAB
:10572800DBB2D0B20133DBB2E0E7F0BD40B1054BEC
:105738001B681BB1834203D05B6AFAE718467047BF
:1057480001207047540B002040B1054B1B681BB16A
:10575800834203D05B69FAE7184670470120704717
:10576800C40A00202DE9F04F9A466A4B1B7885B091
:105778005B0701900D46164640F1CA80BAF1000F4A
:1057880047D1654B1A68002A43D094682046FFF732
:10579800CDFF20B9012D02D0012E40F0A180D168A3
:1057A8000846FFF7C3FF20B9022D02D0022E40F0B1
:1057B800A180B4B10020A778034604345FFA80FCC6
:1057C800674507D954F804CB624504BF0133DBB2FF
:1057D8000130F3E7012B04D0032D02D0032E40F053
:1057E8008B80A1B100208C7803460431C7B2BC423B
:1057F80007D951F8047BBA4204BF0133DBB2013048
:10580800F4E7012B03D0042D01D0042E76D1526980
:10581800B9E7424B1C68002C7AD0BAF1000F18BFC8
:1058280054460027A378009304F1040BB846009B64
:10583800434550D05BF8049B4846FFF785FF18B9ED
:10584800052D01D0052E5BD1D9E902239A4203D157
:10585800062D01D0062E55D1944207D09C4214D073
:10586800072D1CD0072E1AD007223AE049462046B9
:10587800CDE90223FEF7ACFDDDE9022318B9082DB6
:1058880001D0082E40D19A4209D109F102011846E7
:10589800FEF79EFD18B9092D01D0092E36D108F161
:1058A80001085FFA88F85A464346009999420AD097
:1058B80052F8041B894508BF013703F1010308BFEB
:1058C800FFB2DBB2F1E7002FB1D00A2DAFD00A2E1C
:1058D800ADD00A2205E0BAF1000F19D1646A9AE73F
:1058E80001220020019B0E4909F08EFC002005B022
:1058F800BDE8F08F0222F4E70322F2E70422F0E782
:105908000522EEE70622ECE70822EAE70922E8E7A3
:105918000120ECE7AC080020C40A0020540B00204A
:10592800355D011070B50D460446FEF751FDAE1CFD
:1059380020B13146A01CFEF74BFD40B93146204648
:10594800FEF746FD18B12946A01CFEF741FD70BDC3
:10595800F0B5064685B00D460146104614461F466A
:10596800FEF736FDC0B17388ADF8083029462046E9
:10597800FEF72EFD90B16B88ADF80C300023009334
:10598800224603AB02A92046FEF762FDB8428CBF4F
:105998000020012005B0F0BD3388E5E72B88EBE750
:1059A800F0B51A4B1A4F1D68B7F90030194E8BB075
:1059B80003EB83035B000893B1223423CDE906325D
:1059C80002234F22CDE90423CDE90203124B3068AC
:1059D80041211C350024CDE90031099464234FF49A
:1059E8002062294603F042FF24280BD1B7F9002092
:1059F8000A2302FB03022946306803F0F5FB204620
:105A08000BB0F0BD4FF0FF30FAE700BFF40A0020FA
:105A1800060B0020400C00204C4953472DE9F04765
:105A280034238AB00225CDE906534F23CDE9045328
:105A380089460423A1211D4F0392CDE90131044673
:105A48000123002600939046CDE90866184B386874
:105A5800DFF860A06422182103F09BFD24683868F1
:105A680064B18123CDE901540093CDE9036653461F
:105A78006422182103F08DFD6468F0E702233422C4
:105A8800CDE906324F22CDE90432A123CDE90193B5
:105A980001230093CDE90844CDF80C80044B64221F
:105AA800182103F076FD0AB0BDE8F087400C00200D
:105AB8004E4144464E4144532DE9F04702238EB0EF
:105AC800174689464F223421CDE90631CDE9043203
